:020000040800F2
:1000000000800120694B0008E90C0008EB0C000897
:10001000ED0C0008EF0C0008F10C000800000000D7
:10002000000000000000000000000000F30C0008C9
:10003000F50C000800000000F70C0008F90C00089F
:10004000B94B0008B94B0008B94B0008B94B000880
:10005000B94B0008B94B0008B94B0008B94B000870
:10006000B94B0008B94B0008B94B0008B94B000860
:10007000B94B0008B94B0008B94B0008B94B000850
:10008000B94B0008B94B0008B94B0008B94B000840
:10009000B94B0008B94B0008B94B0008B94B000830
:1000A000B94B0008B94B0008B94B0008B94B000820
:1000B000B94B0008B94B0008B94B0008B94B000810
:1000C000B94B0008B94B0008B94B0008B94B000800
:1000D000B94B0008B94B0008B94B0008B94B0008F0
:1000E000B94B0008B94B0008B94B0008B94B0008E0
:1000F000B94B0008B94B0008B94B0008B94B0008D0
:10010000B94B0008B94B0008B94B0008B94B0008BF
:10011000B94B0008B94B0008B94B0008B94B0008AF
:10012000010D0008B94B0008B94B0008B94B000895
:10013000B94B0008B94B0008B94B0008B94B00088F
:10014000B94B0008B94B0008B94B0008B94B00087F
:10015000B94B0008B94B0008B94B0008B94B00086F
:10016000B94B0008B94B0008B94B0008B94B00085F
:10017000B94B0008B94B0008B94B0008000000005B
:08018000B94B0008B94B00085F
:10019000034613F8012B002AFBD1181A01387047C7
:1001A00001F0FF01102A2BDB10F0070F08D010F828
:1001B000013B013A8B422DD010F0070F42B3F6D12C
:1001C000F0B441EA012141EA014122F007047FF045
:1001D00000070023F0E80256083C85EA010586EA9C
:1001E000010685FA47F5A3FA87F586FA47F6A5FAD8
:1001F00087F68EB9EED1F0BC01F0FF0102F00702E4
:1002000032B110F8013B013A83EA010313B1F8D18E
:100210000020704701387047002D06BF354603386F
:10022000073815F0010F07D1013015F4807F02BFA8
:10023000013015F4C03F0130F0BC0138704700BFF9
:1002400070B54FF0FF0C4CF4E06C1CEA11541DBF6C
:100250001CEA135594EA0C0F95EA0C0F00F0DEF837
:100260002C4481EA030621EA4C5123EA4C5350EA1C
:10027000013518BF52EA033541F4801143F480136D
:1002800038D0A0FB02CE4FF00005E1FB02E506F0FE
:100290000042E0FB03E54FF00006E1FB03569CF053
:1002A000000F18BF4EF0010EA4F1FF04B6F5007F59
:1002B00064F5407404D25FEA4E0E6D4146EB0606CB
:1002C00042EAC62141EA55514FEAC52040EA5E5054
:1002D0004FEACE2EB4F1FD0C88BFBCF5E06F1ED8FE
:1002E000BEF1004F08BF5FEA500E50F1000041EB35
:1002F000045170BD06F0004646EA010140EA0200E2
:1003000081EA0301B4EB5C04C2BFD4EB0C0541EA03
:10031000045170BD41F480114FF0000E013C00F318
:10032000AB8014F1360FDEBF002001F0004170BD3C
:10033000C4F10004203C35DA0C341BDC04F1140455
:10034000C4F1200500FA05F320FA04F001FA05F2E1
:1003500040EA020001F0004221F0004110EBD370AE
:1003600021FA04F642EB06015EEA430E08BF20EADA
:10037000D37070BDC4F10C04C4F1200500FA04F37D
:1003800020FA05F001FA04F240EA020001F000410F
:1003900010EBD37041F100015EEA430E08BF20EA82
:1003A000D37070BDC4F1200500FA05F24EEA020ECA
:1003B00020FA04F301FA05F243EA020321FA04F0F9
:1003C00001F0004121FA04F220EA020000EBD370B0
:1003D0005EEA430E08BF20EAD37070BD94F0000FB0
:1003E0000FD101F00046400041EB010111F4801FE4
:1003F00008BF013CF7D041EA060195F0000F18BF95
:10040000704703F00046520043EB030313F4801FD0
:1004100008BF013DF7D043EA0603704794EA0C0F8A
:100420000CEA135518BF95EA0C0F0CD050EA4106A0
:1004300018BF52EA4306D1D181EA030101F000411D
:100440004FF0000070BD50EA410606BF1046194645
:1004500052EA430619D094EA0C0F02D150EA013651
:1004600013D195EA0C0F05D152EA03361CBF104692
:1004700019460AD181EA030101F0004141F0FE4131
:1004800041F470014FF0000070BD41F0FE4141F4B5
:10049000780170BD81F0004102E000BF83F00043AD
:1004A00030B54FEA41044FEA430594EA050F08BF0F
:1004B00090EA020F1FBF54EA000C55EA020C7FEAD3
:1004C000645C7FEA655C00F0E2804FEA5454D4EB50
:1004D0005555B8BF6D420CDD2C4480EA020281EA1A
:1004E000030382EA000083EA010180EA020281EA52
:1004F0000303362D88BF30BD11F0004F4FEA0131A4
:100500004FF4801C4CEA113102D0404261EB4101B2
:1005100013F0004F4FEA03334CEA133302D0524238
:1005200063EB430394EA050F00F0A780A4F10104F4
:10053000D5F1200E0DDB02FA0EFC22FA05F280182E
:1005400041F1000103FA0EF2801843FA05F3594114
:100550000EE0A5F120050EF1200E012A03FA0EFC93
:1005600028BF4CF0020C43FA05F3C01851EBE371BD
:1005700001F0004507D54FF0000EDCF1000C7EEBDA
:1005800000006EEB0101B1F5801F1BD3B1F5001F18
:100590000CD349085FEA30004FEA3C0C04F1010437
:1005A0004FEA445212F5800F80F09A80BCF1004F60
:1005B00008BF5FEA500C50F1000041EB045141EAE2
:1005C000050130BD5FEA4C0C404141EB0101013CAB
:1005D00028BFB1F5801FE9D291F0000F04BF01469A
:1005E0000020B1FA81F308BF2033A3F10B03B3F16C
:1005F00020020CDA0C3208DD02F1140CC2F10C02FC
:1006000001FA0CF021FA02F10CE002F11402D8BF59
:10061000C2F1200C01FA02F120FA0CFCDCBF41EA25
:100620000C019040E41AA2BF01EB0451294330BDF4
:100630006FEA04041F3C1CDA0C340EDC04F11404D1
:10064000C4F1200220FA04F001FA02F340EA0300A8
:1006500021FA04F345EA030130BDC4F10C04C4F1EE
:10066000200220FA02F001FA04F340EA03002946CE
:1006700030BD21FA04F0294630BD94F0000F83F418
:10068000801306BF81F480110134013D4EE77FEAFB
:10069000645C18BF7FEA655C29D094EA050F08BF47
:1006A00090EA020F05D054EA000C04BF1946104628
:1006B00030BD91EA030F1EBF0021002030BD5FEA6C
:1006C000545C05D14000494128BF41F0004130BD94
:1006D00014F580043CBF01F5801130BD01F00045E8
:1006E00045F0FE4141F470014FF0000030BD7FEA5B
:1006F000645C1ABF194610467FEA655C1CBF0B4656
:10070000024650EA013406BF52EA033591EA030F6C
:1007100041F4002130BD00BF90F0000F04BF002164
:10072000704730B54FF4806404F132044FF0000597
:100730004FF0000150E700BF90F0000F04BF002110
:10074000704730B54FF4806404F1320410F0004576
:1007500048BF40424FF000013EE700BF42004FEA71
:10076000E2014FEA31014FEA02701FBF12F07F43EE
:1007700093F07F4F81F06051704732F07F4208BFA5
:10078000704793F07F4F04BF41F40021704730B5AC
:100790004FF4607401F0004521F000411CE700BFF8
:1007A00050EA010208BF704730B54FF000050AE07B
:1007B00050EA010208BF704730B511F0004502D57C
:1007C000404261EB41014FF4806404F132045FEA7E
:1007D000915C3FF4D8AE4FF003025FEADC0C18BF27
:1007E00003325FEADC0C18BF033202EBDC02C2F119
:1007F000200300FA03FC20FA02F001FA03FE40EAAB
:100800000E0021FA02F11444BDE600BF4FEA410296
:10081000B2F1E04324BFB3F5001CDCF1FE5C0DD95E
:1008200001F0004C4FEAC0024CEA5070B2F1004FA8
:1008300040EB830008BF20F00100704711F0804FAB
:1008400021D113F13872BCBF01F00040704741F470
:1008500080114FEA5252C2F11802C2F1200C10FA74
:100860000CF320FA02F018BF40F001004FEAC12358
:100870004FEAD32303FA0CFC40EA0C0023FA02F3FC
:100880004FEA4303CCE77FEA625307D150EA0133D2
:100890001EBF4FF0FE4040F44000704701F00040A2
:1008A00040F0FE4040F40000704700BF53B94AB921
:1008B000002908BF00281CBF4FF0FF314FF0FF3068
:1008C00000F00CB8ADF1080C6DE904CE04F050FE58
:1008D000DDF804E0DDE9022304B07047704700BF93
:1008E0000348044B834202D0034B03B118477047BF
:1008F0006000002060000020000000000548064B5A
:100900001B1AD90F01EBA301491002D0034B03B10D
:1009100018477047600000206000002000000000C1
:1009200010B5064C237843B9FFF7DAFF044B13B137
:100930000448AFF300800123237010BD6000002045
:10094000000000003858000808B5054B1BB10549E8
:100950000548AFF30080BDE80840FFF7CFBF00BFF8
:1009600000000000640000203858000810B58AB06C
:10097000002405940694079408940994214BDA6C9A
:1009800042F00402DA64DA6C02F004020192019A85
:10099000DA6C42F08002DA64DA6C02F080020292D1
:1009A000029ADA6C42F00102DA64DA6C02F00102B7
:1009B0000392039ADA6C42F00202DA64DB6C03F011
:1009C00002030493049B224620214FF0904002F042
:1009D000BDFA4FF4005305934FF4041306930794A4
:1009E00005A9094802F0B2F92023059301230693D3
:1009F0000794089405A94FF0904002F0A7F90AB0B7
:100A000010BD00BF001002400008004800B583B0D0
:100A10000A4B9A6C42F002029A649B6C03F0020348
:100A20000193019B00221146382002F073FC38200C
:100A300002F080FC03B05DF804FB00BF0010024030
:100A4000014B01221A7070477C000020002800F042
:100A5000A58070B5ADF5803D8AB04FF48044224644
:100A600000210AA804F0CAF84FF4004200210DF555
:100A70000040283004F0C2F8224600210DF58040E5
:100A8000283004F0BBF800230193012100230DE07E
:100A9000434A32F9112007EE902AF8EEE77A0AAAC3
:100AA00002EB8302C2ED007A01330231B3F5005F3D
:100AB000EEDB4FF4805104A803F0FCFF00230DF59A
:100AC000004228320AA904A803F0D6FF0DF580459C
:100AD00028354FF4805229460DF50040283004F0A7
:100AE00021F800242C606C6003AB02AA4FF4006173
:100AF000284602F077FF00200390142307EE904A67
:100B000001E000200133152B0FDC0DF58042283267
:100B100002EB830292ED007AB4EEE77AF1EE10FA7E
:100B2000EFDD1846F0EE477AECE7FFF7F5FD00221F
:100B30001C4BFFF785FBFFF769FE0190DDED017AA5
:100B4000194E1A4CFCEEE77A17EE902A31462046F1
:100B500004F034F82046FFF71BFB154D0A2382B240
:100B60002146284602F05FFEDDED017AFCEEE77AD1
:100B700017EE902A3146204604F020F82046FFF771
:100B800007FB0A2382B22146284602F04CFE094B9D
:100B900000221A700DF5803D0AB070BD704700BF8D
:100BA0008000002000400F40505800088040002086
:100BB000944000207C00002072B6FEE708B50C4887
:100BC0000C4B03600121416000238360036143619A
:100BD00083614FF47A52C261C3604362836202232D
:100BE0001A4600F07BFB00B908BDFFF7E5FF00BF28
:100BF000604100200454014008B50B480B4B0360D2
:100C00004FF4E133436000238360C36003610C222F
:100C100042618361C3610362436202F0A8FE00B9CE
:100C200008BDFFF7C9FF00BF94400020004400400A
:100C300000B597B04422002105A803F0DFFF002390
:100C4000009301930293039304934FF4007002F016
:100C5000C5FA20BB022305934FF48072089210223C
:100C600009920F931093012211920A2212920722E5
:100C700013921493159305A800F0D8FC88B90F239C
:100C8000009303230193002302930393049304210D
:100C9000684600F0D9FF30B917B05DF804FBFFF7E4
:100CA0008BFFFFF789FFFFF787FF000008B500F013
:100CB000F3FBFFF7BDFFFFF759FEFFF7A7FEFFF7B6
:100CC0007DFFFFF799FF4FF400520449044800F0FC
:100CD0001BFB044B1878FFF7B9FEFAE780000020F1
:100CE000604100207C000020FEE7FEE7FEE7FEE713
:100CF000FEE770477047704708B500F0E3FB08BD9A
:100D000008B5024802F0FFF908BD00BF18410020F5
:100D100082B00A4B1A6E42F001021A661A6E02F095
:100D200001020092009A9A6D42F080529A659B6D82
:100D300003F080530193019B02B070470010024002
:100D400010B5AAB00446002125912691279128913B
:100D50002991882203A803F051FF2268184B9A4278
:100D600001D02AB010BD0223039303A801F048FA72
:100D700010BB144B9A6D42F400329A659A6D02F4DE
:100D800000320192019ADA6C42F00102DA64DB6C03
:100D900003F001030293029B0C2325930223269365
:100DA00000232793032328930723299325A94FF092
:100DB000904001F0CBFFD4E7FFF7FEFED9E700BF7C
:100DC0000044004000100240F0B5A9B0044688225B
:100DD000002101A803F012FF2268324B9A4201D091
:100DE00029B0F0BD4FF4006301934FF480031A93D0
:100DF0000223099301220A9215220B9207220C92D8
:100E00000D934FF480330E9301A801F0F9F90028F7
:100E100041D1254B1B684BB9244A116E41F4001196
:100E20001166126E02F400120092009A01331E4AFB
:100E300013600823239302272497002525952695E0
:100E40000D26279623A91A4801F080FF4FF4C063AE
:100E50002393249725952695279623A9154801F0D5
:100E600075FF1548154B0360012343608560C5601D
:100E7000802303614FF4807343614FF48063836187
:100E80002023C361056202F07FF838B90A4B23675B
:100E90009C62E366A4E7FFF78FFEBAE7FFF78CFEDC
:100EA000F4E700BF04540140E44100200010024078
:100EB00000080048000400481841002008040240CF
:100EC00084460020CCF83000CCF83800DCF8040070
:100ED00028B1022803D00120CCF83C0002E0002019
:100EE000CCF83C004FF48030CCF848004FF6FF704F
:100EF000CCF860000020CCF85400CCF85C3013F043
:100F0000010F64D159B9CCF84C004FF48020CCF8D3
:100F10005000032A3AD8DFE802F00A3B1B2A4FF4BC
:100F20000030CCF84C000020CCF85000F1E78020D5
:100F3000CCF834005B085801CCF840001B01CCF819
:100F400044304023CCF858300020022941D070476B
:100F5000C020CCF834005B089801CCF840005B015D
:100F6000CCF844308023CCF858300020EDE7E02066
:100F7000CCF834005B089801CCF840005B01CCF859
:100F800044308023CCF858300020DEE70120DCE735
:100F900010B48020CCF834005B089C01CCF84040B1
:100FA0005B01CCF84430CCF858000020022902D074
:100FB0005DF8044B7047012A05D0022AF8D10823B6
:100FC000CCF85430F4E71023CCF85430F0E701208B
:100FD0007047012A05D0022AB9D10823CCF8543031
:100FE000B5E71023CCF85430704730B400240463C4
:100FF0008463446824B1022C02D00024C46301E05D
:101000000124C463002484644FF40035C5644FF4A4
:10101000802505654465C3654FF6FF7404660429A1
:1010200007D00D214164032A26D8DFE802F0050E1F
:10103000151D01214164F6E7802242631B01036410
:1010400040238365002030BC7047802242635B01EF
:10105000036482650020F6E7C02242635B010364FB
:10106000802383650020EEE7E02242635B01036496
:10107000802383650020E6E70120E4E701290AD008
:101080000123026B082A08D04268023A012A0CD9CF
:1010900043F0040070470923F3E74268032A01D0B4
:1010A000012AF1D143F01003EEE743F060007047EE
:1010B0000E4B1B680E4AA2FB03231B0B9B0001680F
:1010C0000A6822F480320A603BB1013B0268126870
:1010D00012F4803FF8D100207047D0F8803043F000
:1010E0004003C0F880300320704700BF0800002094
:1010F0001BECCB9570B5002800F0E280044690F818
:101100007D3013B32046FFF7D3FF0546002840F09B
:10111000D980022384F87D30E368012B1AD0022B9A
:101120001AD12022A368022B20D0032B19D0012B27
:1011300014D00026236864498B421AD020318B4298
:1011400017D0624BC3F8002816E080F87C30FFF718
:101150003BFED7E71022E5E70022E3E74FF4806685
:10116000E8E742F001024FF40066E3E74FF400665F
:10117000E0E7564BC3F80024E36933B32368524ACF
:10118000934207D02032934204D04FF4805001F0B4
:1011900061FA03E04FF4006001F05CFA00EB8000BC
:1011A0004300E2695202B3FBF2F3494AA2FB031285
:1011B000D208226202EB8201A3EB4103082B01D982
:1011C00001322262236B042B09D063685BB1022BCE
:1011D00009D0E36B012B70D04FF0000C08E0236ABC
:1011E0005B082362F1E7E36B012B63D04FF4007CD3
:1011F00022681168374B0B40136021680A686368E6
:10120000206B0343606B0343A06B034343EA0C036F
:101210003343606A03432069034360690343206AE0
:1012200043EA00531A430A602268536823F4604378
:1012300023F00F03536021684A68A369A06A03433F
:10124000E06A034313434B6022689168224B0B40D2
:10125000936020688268236C013B216D0B43A16C75
:101260000B43E16C0B43616C013943EA01231343E7
:1012700083602268D36823F47D6323F00F031B048B
:101280001B0CD3602068C268636DA16D0B43216E97
:1012900043EA0143E16D013943EA01231343C3608B
:1012A0000023C4F88030012284F87D2084F87C304B
:1012B000284670BD4FF0000C9AE74FF4007C97E78A
:1012C0000125F5E70125F3E70454014000500140F2
:1012D000CDCCCCCC10C005FF0080F8FF10B5044683
:1012E000022906D9C81E01280BD82046FFF77DFE2B
:1012F00001E0FFF7E5FD00B110BD2046FFF7FAFE63
:10130000FAE70120F8E7000070B500294ED0044646
:101310000B46002A4CD090F87D50EDB2012D4AD1F9
:1013200090F87C10012948D0012180F87C10436698
:10133000A0F86820A0F86A200023C0F8803022229C
:1013400080F87D20026F1E491163026F1D49D16232
:10135000026F1D495163026F93630168B0F86830F2
:10136000426E1C31006F01F093FE064618B1002357
:1013700084F87C301DE000212046FFF77FFE2268C4
:101380001369034313612268136843F40033136045
:1013900023681A6812F4803F03D11A6842F480323D
:1013A0001A60002384F87C30354602E0012500E015
:1013B0000125284670BD0225FBE70225F9E700BF9D
:1013C00007140008CD1300081314000810B5846A30
:1013D000C369202B12D02268136823F400331360F2
:1013E0000021A4F86A102046FFF748FE226813691E
:1013F00023EA00031361012384F87D302046FFF7C0
:101400001FFB10BD704708B5806AFFF7FBFF08BDE2
:10141000704710B5846AD4F8803043F08003C4F874
:1014200080302268136823F4003313602046FFF7EE
:101430003FFE012384F87D300023A4F86A30204663
:10144000FFF7E6FF10BD0000104B1B780BB9012021
:10145000704710B504464FF47A70B0FBF3F30C4AB2
:101460001068B0FBF3F001F069FF68B90F2C01D9E7
:1014700001200AE0002221464FF0FF3001F04AFF30
:10148000044B1C60002000E0012010BD0000002083
:10149000080000200400002010B5094A136843F436
:1014A00080731360032001F023FF0020FFF7CCFFBF
:1014B00010B10124204610BD0446FFF729FCF9E7CE
:1014C00000200240034B1B78034A11680B44136051
:1014D000704700BF00000020E8410020014B186861
:1014E000704700BFE841002030B583B00446204B70
:1014F0009B6D13F0805F0BD001F068FEB0F5007FAC
:1015000017D0802C1FD82DD0702C2DD000211BE09F
:10151000174DAB6D43F08053AB65AB6D03F080535B
:101520000193019B01F052FEAB6D23F08053AB653C
:10153000E4E7802C03D9A02C03D9022104E0002188
:1015400002E0012100E003210A4A136823F00703A7
:101550000B431360136803F007038B4206D100208E
:1015600003B030BD0221EFE70121EDE70120F7E7ED
:101570000010024000200240284A9368D26802F01E
:10158000030213F00C030AD00C2B06D0042B1FD03F
:10159000082B20D00020024610E0012AF6D11F4A75
:1015A000126812F0080F0CD11C4AD2F89420C2F332
:1015B00003221B4951F8222043B100200C2B0DD0EF
:1015C0007047164A1268C2F30312F2E71046F5E7B5
:1015D00014480022F2E714480022EFE70F4BDB68C3
:1015E00003F00303022B16D0032B00D10E4A0B4944
:1015F000CB68C3F302130133C868C0F3062002FBB3
:1016000000F0B0FBF3F0CB68C3F3416301335B0040
:10161000B0FBF3F0D4E7034AE9E700BF0010024053
:10162000585800080024F40000127A00002800F046
:10163000F182F0B583B00446964B9D6805F00C0529
:10164000DE6806F00306036813F0100F5AD0E5B108
:101650000C2D18D0A369002B00F0BB808D4A1368B5
:1016600043F001031360FFF739FF0746894B1B68FE
:1016700013F0020F40F09A80FFF730FFC01B0228E2
:10168000F4D90320D1E2012EE4D1824B1B6813F080
:10169000020F03D0A369002B00F0BE82206A7D4BAD
:1016A0001B6813F0080F5BD07A4B1B6803F0F00344
:1016B00098425CD8774B1A6842F008021A601A68A0
:1016C00022F0F002216A0A431A605A6822F47F422B
:1016D000E16942EA01225A60002D60D0FFF74CFF19
:1016E0006C4B9B68C3F303136B4AD35C03F01F037B
:1016F000D8406A4B18606A4B1868FFF7A5FE0028AF
:1017000040F09382236813F0010F00F08180082DD0
:1017100075D00C2D71D06368B3F5803F00F09780D1
:10172000B3F5A02F00F099805A4B1A6822F480324A
:101730001A601A6822F480221A606368002B00F095
:101740009980FFF7CBFE0746524B1B6813F4003F0E
:101750005ED1FFF7C3FEC01B6428F5D9032064E205
:101760004C4BD3F894301B0903F0F003A0E7FFF7CC
:10177000BBFE002840F05282464B1A6842F0080235
:101780001A601A6822F0F002216A0A431A605A6845
:1017900022F47F42E16942EA01225A609EE7206A10
:1017A000FFF7A2FE002899D001203EE2394B1A68CB
:1017B00042F008021A601A6822F0F002216A0A4315
:1017C0001A605A6822F47F42E16942EA01225A60B3
:1017D00098E7304A136823F001031360FFF77EFE99
:1017E00007462C4B1B6813F0020F8BD0FFF776FED9
:1017F000C01B0228F5D9032017E2032E8BD1254BFD
:101800001B6813F4003F03D06368002B00F00882CC
:10181000236813F0020F58D0042D45D00C2D41D071
:10182000E368002B77D01B4A136843F4807313607E
:10183000FFF754FE0646174B1B6813F4806F61D107
:10184000FFF74CFE801B0228F5D90320EDE1114A79
:10185000136843F4803313606FE703F18043A3F50B
:101860003C331A6842F480221A601A6842F48032CB
:101870001A6062E7FFF732FE0746064B1B6813F457
:10188000003FC5D0FFF72AFEC01B6428F5D903200E
:10189000CBE100BF00100240905800080800002073
:1018A00004000020022EBBD1A34B1B6813F4806FF1
:1018B00003D0E368002B00F0B5819F4A536823F002
:1018C000F853216943EA01635360236813F0080F5A
:1018D0004CD063699BB3984AD2F8943043F001032B
:1018E000C2F89430FFF7FAFD0646934BD3F89430D4
:1018F00013F0020F3AD1FFF7F1FD801B0228F4D953
:10190000032092E18C4A536823F0F853216943EA9B
:1019100001635360D9E7884A136823F48073136026
:10192000FFF7DCFD0646844B1B6813F4806FCCD0B8
:10193000FFF7D4FD801B0228F5D9032075E17E4A0C
:10194000D2F8943023F00103C2F89430FFF7C6FDBB
:101950000646794BD3F8943013F0020F06D0FFF708
:10196000BDFD801B0228F4D903205EE1236813F03B
:10197000040F7AD0704B9B6D13F0805F36D16E4BA5
:101980009A6D42F080529A659B6D03F080530193EB
:10199000019B0126694B1B6813F4807F28D0A36844
:1019A000012B39D0052B3FD0634BD3F8902022F088
:1019B0000102C3F89020D3F8902022F00402C3F86B
:1019C0009020A368002B3DD0FFF788FD07465A4BB7
:1019D000D3F8903013F0020F46D1FFF77FFDC01B04
:1019E00041F288339842F2D903201EE10026D1E764
:1019F000524A136843F480731360FFF76FFD074684
:101A00004E4B1B6813F4807FC9D1FFF767FDC01BE5
:101A10000228F5D9032008E1474AD2F8903043F074
:101A20000103C2F89030CCE7434BD3F8902042F04A
:101A30000402C3F89020D3F8902042F00102C3F8CA
:101A40009020BEE7FFF74AFD07463B4BD3F89030A6
:101A500013F0020F08D0FFF741FDC01B41F288339D
:101A60009842F2D90320E0E0EEB9A36A002B00F01F
:101A7000DB80022B1DD00C2D00F0DD802E4A136878
:101A800023F080731360FFF729FD04462A4B1B687F
:101A900013F0007F00F0B780FFF720FD001B022845
:101AA000F4D90320C1E0244A936D23F08053936559
:101AB000DBE7214BDB6803F00301E26A91420FD0C0
:101AC0000C2D00F0B4801C4B1B6813F0806F40F0AD
:101AD000B080194B1B6813F0805F31D00120A4E067
:101AE00003F07002216B0139B2EB011FE8D103F45E
:101AF000FE42616BB2EB012FE2D103F40031A26B25
:101B0000073A18BF01229142DAD103F4C001E26B17
:101B10005208013AB1EB425FD2D103F0C063226CAC
:101B20005208013AB3EB426FCAD1034B1B6813F062
:101B3000007F4ED0002078E000100240007000408E
:101B40003E4A136823F080731360FFF7C7FC054615
:101B50003A4B1B6813F0007F06D0FFF7BFFC401B19
:101B60000228F5D9032060E0344AD368344919408B
:101B7000E36A206B013843EA0013606B43EA0023F9
:101B8000E06B4008013843EA4053206C40080138BC
:101B900043EA4063A06B000943EA40431943D16024
:101BA000136843F080731360D36843F08073D3608D
:101BB000FFF794FC0446214B1B6813F0007F06D10D
:101BC000FFF78CFC001B0228F5D903202DE0002034
:101BD0002BE01A4B1A6842F080721A60DA6842F001
:101BE0008072DA60FFF77AFC0446144B1B6813F02E
:101BF000007F06D1FFF772FC031B022BF5D90320EF
:101C000013E0002011E00D4AD1680E4B0B40D36069
:101C100000200AE001207047012006E0012004E0D6
:101C2000012002E0012000E0002003B0F0BD01200F
:101C3000FBE70120F9E70120F7E700BF00100240B1
:101C40008C809DF9FCFFEEFE002800F0AF8070B59F
:101C50000D460446594B1B6803F007038B420BD219
:101C6000564A136823F007030B431360136803F00D
:101C700007038B4240F09C80236813F0020F0CD0C6
:101C8000A2684F4B9B6803F0F0039A4205D94C4978
:101C90008B6823F0F0031A438A60236813F0010F66
:101CA00039D06368032B09D0022B26D063BB444A8A
:101CB000126812F0020F06D1012076E0404A126845
:101CC00012F0007F76D03E498A6822F00302134367
:101CD0008B60FFF703FC0646394B9B6803F00C034F
:101CE0006268B3EB820F16D0FFF7F8FB801B41F25E
:101CF00088339842F0D9032057E0314A126812F431
:101D0000003FE0D1012050E02D4A126812F4806FAC
:101D1000D9D1012049E0236813F0020F0CD0A2684A
:101D2000274B9B6803F0F0039A4205D224498B6845
:101D300023F0F0031A438A60204B1B6803F007036B
:101D4000AB420AD91D4A136823F007032B431360E3
:101D5000136803F00703AB422ED1236813F0040F7E
:101D600006D0174A936823F4E063E1680B4393605D
:101D7000236813F0080F07D0114A936823F46053C7
:101D8000216943EAC1039360FFF7F6FB0C4B9B68A4
:101D9000C3F303130B4AD35C03F01F03D8400A4B71
:101DA00018600A4B1868FFF74FFB70BD01207047A1
:101DB0000120FAE70120F8E70120F6E700200240C1
:101DC0000010024090580008080000200400002085
:101DD000014B1868704700BF0800002008B5FFF7E6
:101DE000F7FF054B9B68C3F30223044AD35C03F05F
:101DF0001F03D84008BD00BF0010024088580008EB
:101E000008B5FFF7E5FF054B9B68C3F3C223044AFF
:101E1000D35C03F01F03D84008BD00BF0010024090
:101E200088580008B0F5006F2BD0B0F5805F32D035
:101E30000023B3F5000F38D0B3F1007F35D0002B6D
:101E400054D103F1804303F50433186810F00060A7
:101E500053D0186910F480304FD01A46D868C0F3B8
:101E600002100130B1FBF0F11B69C3F306231269C4
:101E700012F4003F38D0112203FB01F0B0FBF2F066
:101E800070472E4BD3F8883003F44003B3F5400F6E
:101E9000CFD12B487047294BD3F8883003F04073DB
:101EA000B3F1407FC5D126487047244B186810F025
:101EB000007022D0D86810F480301ED01A46D8683E
:101EC000C0F302100130B1FBF0F1DB68C3F306236D
:101ED000D26812F4003F05D0112203FB01F0B0FBE1
:101EE000F2F070470722F8E70722C5E7B3F5800F45
:101EF00004D0B3F1807F01D0002070470F4B1868E9
:101F000010F00050F9D0586910F48030F5D01A461E
:101F1000D868C0F302100130B1FBF0F15B69C3F384
:101F20000623526912F4003F05D0112203FB01F091
:101F3000B0FBF2F070470722F8E700BF0010024044
:101F400068FF1F00F8B504460D46594BDB6813F0D7
:101F5000030F17D0564BDB6803F00303026893426C
:101F600001D0012616E0002A00F09F80504BDB686C
:101F7000C3F3021301334268934201D0012609E002
:101F800000261BE00368022B58D0032B5DD0012BE9
:101F900002D001263046F8BD454A126812F0020F01
:101FA0005FD04348C26822F073026168013943EA96
:101FB00001131343C3600026002EEBD13C4A136883
:101FC00023F080631360FFF789FA0746384B1B68DC
:101FD00013F0006F05D0FFF781FAC31B022BF5D970
:101FE0000326002ED6D1002D3DD131490B6923F4B3
:101FF0001F3323F44073A068E2681209520442EAD6
:10200000002213430B612A4A136843F08063136074
:10201000FFF764FA0546264B1B6813F0006F05D1E5
:10202000FFF75CFA401B0228F5D90326002EB1D138
:102030001F4A1369A1690B431361ABE71C4A12687D
:1020400012F4806FADD10126A4E7194A126812F488
:10205000003FA6D1164A126812F4802FA1D10126A2
:1020600098E70126A8E7012D0FD01148026922F058
:10207000C06222F4FE42A16863695B08013B5B0613
:1020800043EA01231A430261BDE70948026922F4C9
:10209000C00222F4FE42A16823695B08013B5B0594
:1020A00043EA01231A430261ADE7012672E700BF4C
:1020B00000100240F8B504460D46504BDB6813F0A3
:1020C000030F17D04D4BDB6803F003030268934204
:1020D00001D0012616E0002A00F08D80474BDB6816
:1020E000C3F3021301334268934201D0012609E091
:1020F00000261BE00368022B58D0032B5DD0012B78
:1021000002D001263046F8BD3C4A126812F0020F98
:102110005FD03A48C26822F073026168013943EA2D
:1021200001131343C3600026002EEBD1334A13681A
:1021300023F080531360FFF7D1F907462F4B1B683C
:1021400013F0005F05D0FFF7C9F9C31B022BF5D9C7
:102150000326002ED6D1002D3DD128494B6923F40A
:102160001F3323F44073A068E2681209520442EA64
:10217000002213434B61214A136843F080531360DC
:10218000FFF7ACF905461D4B1B6813F0005F05D146
:10219000FFF7A4F9401B0228F5D90326002EB1D180
:1021A000164A536961690B435361ABE7134A1268DE
:1021B00012F4806FADD10126A4E7104A126812F420
:1021C000003FA6D10D4A126812F4802FA1D101263A
:1021D00098E70126A8E70948426922F0C06222F484
:1021E000FE42A16823695B08013B5B0643EA0123C9
:1021F0001A434261BFE7012684E700BF0010024096
:102200002DE9F04182B00446036813F4006F33D027
:10221000436EB3F5000F1FD00CD823B3B3F5800F76
:1022200005D100212030FFF745FF064620E00127B9
:102230003E4623E0B3F5400F0BD10026604AD2F8AA
:10224000883023F44003616E0B43C2F888300027C6
:1022500014E001273E4611E0594AD36843F4803325
:10226000D3600026EAE700210430FFF76BFE064644
:10227000002EE3D0374601E000273E46236813F4E2
:10228000805F30D0A36EB3F1007F1FD00DD81BB399
:10229000B3F1807F06D1002104F12000FFF70AFF8F
:1022A000064605E001273E461DE0B3F1407F0AD116
:1022B000C6B9434AD2F8883023F04073A16E0B436D
:1022C000C2F888300FE001273E460CE03C4AD36854
:1022D00043F48033D360EBE70021201DFFF732FE8B
:1022E0000646E5E73746236813F4003F71D0344BC8
:1022F0009B6D13F0805F4ED1314B9A6D42F080524E
:102300009A659B6D03F080530193019B4FF0010888
:102310002C4A136843F480731360FFF7DFF8054617
:10232000284B1B6813F4807F05D1FFF7D7F8401BBB
:102330000228F5D90326002E46D1214BD3F8903040
:1023400013F4407316D0D4F884209A4212D01C4A59
:10235000D2F8903023F44073D2F8901041F48031D9
:10236000C2F89010D2F8901021F48031C2F8901089
:10237000C2F8903013F0010F10D1002E40F02781E9
:102380000F4AD2F8903023F44073D4F884100B43F2
:10239000C2F8903019E04FF00008B9E7FFF79EF857
:1023A0000546074BD3F8903013F0020FE5D1FFF745
:1023B00095F8401B41F288339842F2D90326DCE7B6
:1023C00000100240007000403746B8F1000F40F0A6
:1023D0000081236813F0010F08D09D4AD2F888309D
:1023E00023F00303A16B0B43C2F88830236813F07A
:1023F000020F08D0964AD2F8883023F00C03E16B24
:102400000B43C2F88830236813F0040F08D0904AB9
:10241000D2F8883023F03003216C0B43C2F88830A7
:10242000236813F0080F08D0894AD2F8883023F0C7
:10243000C003616C0B43C2F88830236813F0100F9F
:1024400008D0834AD2F8883023F44073A16C0B4340
:10245000C2F88830236813F0200F08D07C4AD2F8E5
:10246000883023F44063E16C0B43C2F88830236862
:1024700013F4007F08D0764AD2F8883023F4402342
:10248000E16D0B43C2F88830236813F4806F08D0E5
:102490006F4AD2F8883023F44013216E0B43C2F800
:1024A0008830236813F0400F08D0694AD2F888308A
:1024B00023F44053216D0B43C2F88830236813F096
:1024C000800F08D0624AD2F8883023F44043616D0F
:1024D0000B43C2F88830236813F4807F08D05C4A2D
:1024E000D2F8883023F44033A16D0B43C2F8883012
:1024F000236813F4005F0FD0554AD2F8883023F0D8
:102500004063E16E0B43C2F88830E36EB3F1006FB5
:1025100065D0B3F1806F67D0236813F4002F0FD01C
:102520004B4AD2F8883023F04063216F0B43C2F846
:102530008830236FB3F1006F5ED0B3F1806F60D04D
:10254000236813F4802F0FD0414AD2F8883023F04B
:102550004063616F0B43C2F88830636FB3F1006F63
:1025600057D0B3F1806F59D0236813F4804F0FD048
:10257000374AD2F8883023F04053A16F0B43C2F89A
:102580008830A36FB3F1805F50D0B3F1005F55D0B6
:10259000236813F4004F08D02D4AD2F8883023F076
:1025A0008043E16F0B43C2F88830236813F4803F07
:1025B00009D0274AD2F8883023F00043D4F880109D
:1025C0000B43C2F88830384602B0BDE8F081374688
:1025D000FBE61F4A936D23F080539365F9E6D368B9
:1025E00043F48013D36097E70121201DFFF7AAFC75
:1025F000002891D007468FE7D36843F48013D36057
:102600009EE70121201DFFF79DFC002898D007467A
:1026100096E7D36843F48013D360A5E70121201D1A
:10262000FFF790FC00289FD007469DE70221201D60
:10263000FFF788FC0028ABD00746A9E7022104F188
:102640002000FFF737FD0028A2D00746A0E700BF13
:102650000010024008B5B0F5003F3BD09D4BDB6851
:1026600003F00303022B78D0032B7DD0012B5DD028
:102670000021B0F5807F00F0E38200F296802028F0
:102680007AD8002800F0548301381F2800F25283C2
:10269000DFE810F068018C015003BB0150035003C8
:1026A0005003E40150035003500350035003500300
:1026B00050030D02500350035003500350035003C6
:1026C0005003500350035003500350035003500372
:1026D000500339027F4BD3F8903003F44073B3F5C5
:1026E000007F11D0B3F5407F18D0B3F5807F01D0C3
:1026F000002020E3774BD3F8900010F0020000F0A8
:102700001A834FF4004016E3724BD3F8940010F094
:10271000020000F010834FF4FA400CE36D4B186890
:1027200010F4003000F007836B4804E3694B19682C
:1027300011F002019DD01B6813F0080F07D0654B04
:102740001B68C3F30313654A52F8231091E7614BEA
:10275000D3F89430C3F30323F5E75E4B196811F403
:10276000806186D05E4984E75A4B196811F40031C4
:102770003FF47FAF5B497CE7402800F03882802837
:1027800011D1544BD3F8883003F44043B3F5804F54
:1027900000F04C82B3F5004F00F04B82002B00F0AC
:1027A00042820020C7E20020C5E2B0F5805F73D00E
:1027B00010D9B0F5004F00F0A88238D9B0F5803FAD
:1027C00050D1444BD3F88830002BC0F20D82FFF774
:1027D00017FBB0E2B0F5806F00F06782B0F5006FD4
:1027E00004D14FF40060FFF71DFBA4E2B0F5007FB9
:1027F0001BD1384BD3F8883003F44023B3F5002FB6
:1028000000F04C8200F23982002B00F04482B3F5D4
:10281000802F40F030822F4BD3F8940010F002004C
:1028200000F089824FF4FA4085E2002083E2B0F59F
:10283000005F1FD0B0F5804F12D1264BD3F88830FF
:1028400003F04053B3F1005F00F0AF81B3F1405F9C
:1028500000F08581B3F1805F00F0888100206AE29A
:10286000002068E2C0F06882B0F5802F02D0B0F599
:10287000002F0FD1174BD3F8883003F04063B3F12A
:10288000006F31D0B3F1406F0BD0B3F1806F4AD0FD
:10289000002050E200204EE24FF48050FFF7C2FAD1
:1028A00049E20C4B186810F0020000F044821B68EB
:1028B00013F0080F07D0074B1B68C3F30313074A35
:1028C00052F8230037E2034BD3F89430C3F30323C9
:1028D000F5E700BF0010024090D0030058580008F0
:1028E0000024F40000127A009E4B186810F000706B
:1028F00000F02182D86810F4801000F01C821A4683
:10290000DB68C3F3062303FB01F0D368C3F30213B0
:102910000133B0FBF3F0D368C3F3415301335B00E1
:10292000B0FBF3F007E28F4B186810F0006000F086
:102930000282186910F4801000F0FD811A461B69AC
:10294000C3F3062303FB01F0D368C3F3021301337F
:10295000B0FBF3F01369C3F3415301335B00B0FBE9
:10296000F3F0E8E17F4BD3F8883003F00303032B47
:1029700000F2E481DFE803F002050810FFF740FAF7
:10298000D9E1FEF7F9FDD6E1764B186810F48060C6
:1029900000F0D1817448CEE1724BD3F8900010F072
:1029A000020000F0C8814FF40040C4E16D4BD3F841
:1029B000883003F00C030C2B00F2C281DFE813F027
:1029C0000D00C001C001C0011000C001C001C00164
:1029D0001300C001C001C0011B00FFF7FFF9AAE10D
:1029E000FEF7CAFDA7E15F4B186810F4806000F0A5
:1029F000A2815D489FE15B4BD3F8900010F002008C
:102A000000F099814FF4004095E1564BD3F888309F
:102A100003F03003202B19D007D8A3B1102B02D11B
:102A2000FEF7AAFD87E1002085E1302B09D14D4B4F
:102A3000D3F8900010F0020000F07D814FF40040C8
:102A400079E1002077E1FFF7C9F974E1454B186897
:102A500010F4806000F06F8143486CE1414BD3F883
:102A6000883003F0C003802B19D007D8A3B1402BC6
:102A700002D1FEF781FD5EE100205CE1C02B09D1AF
:102A8000384BD3F8900010F0020000F054814FF45E
:102A9000004050E100204EE1FFF7A0F94BE1314B3F
:102AA000186810F4806000F046812F4843E12D4BF8
:102AB000D3F8883003F44073B3F5007F1BD008D8F7
:102AC000B3B1B3F5807F02D1FEF756FD33E10020AC
:102AD00031E1B3F5407F09D1224BD3F8900010F0DB
:102AE000020000F028814FF4004024E1002022E1A0
:102AF000FFF774F91FE11B4B186810F4806000F0B9
:102B00001A81194817E1174BD3F8883003F4406352
:102B1000B3F5006F1BD008D8B3B1B3F5806F02D105
:102B2000FEF72AFD07E1002005E1B3F5406F09D16A
:102B30000C4BD3F8900010F0020000F0FC804FF432
:102B40000040F8E00020F6E0FFF748F9F3E0054B1D
:102B5000186810F4806000F0EE800348EBE0FEF7A8
:102B60000BFDE8E0001002400024F400754B1868EB
:102B700010F0006000F0DF80186910F0807000F045
:102B8000DA801A461B69C3F3062303FB01F0D368FE
:102B9000C3F302130133B0FBF3F01369C3F34163D2
:102BA00001335B00B0FBF3F0C5E0664B186810F032
:102BB000005000F0C080586910F0807000F0BB80B9
:102BC00018465B69C3F3062301FB03F3C268C2F333
:102BD00002120132B3FBF2F34069C0F341600130ED
:102BE0004000B3FBF0F0A6E0FEF7C6FCA3E0554BB7
:102BF000D3F8883003F44053B3F5805F08D0B3F5C1
:102C0000005F08D00BB1002095E0FFF7E7F892E0F5
:102C1000FEF7B2FC8FE04B4B186810F4806000F0B8
:102C20008A80494887E0FFF7D9F884E0FEF7A4FCE2
:102C300081E0444B186810F480607CD042487AE010
:102C4000404BD3F8883003F44033B3F5803F08D0CD
:102C5000B3F5003F08D00BB100206CE0FFF7BEF8E1
:102C600069E0FEF789FC66E0364B186810F4806076
:102C700061D035485FE000205DE0B3F5402F08D11A
:102C8000304BD3F8900010F0020054D04FF40040C5
:102C900051E000204FE0FFF7A1F84CE0294B186805
:102CA00010F4806047D0284845E0264BD3F88830A0
:102CB00003F44013B3F5001F20D00ED8DBB1B3F5F9
:102CC000801F08D11F4BD3F8940010F0020032D0BF
:102CD0004FF4FA402FE000202DE0B3F5401F08D15B
:102CE000184BD3F8900010F0020024D04FF40040AD
:102CF00021E000201FE0FFF771F81CE0114B18687D
:102D000010F4806017D0104815E00E4BD3F88830CF
:102D100013F0804302D023B900200CE0FFF75EF8E7
:102D200009E0084B186810F4806004D0064802E0FF
:102D3000002000E0002008BD0020FCE70020FAE7AA
:102D40000020F8E7001002400024F400F0B583B042
:102D500000236BE085685E000324B44025EA040587
:102D6000CC68B4402C438460456825EA0C054C6867
:102D7000C4F300149C402C43446069E0C56A25EA12
:102D80000C05C4F3C0049C402C43C46266E0DD081B
:102D9000083550F8254003F0070C4FEA8C0C4FF033
:102DA0000F0E0EFA0CFE24EA0E0E0C6904FA0CF457
:102DB00044EA0E0440F8254067E0062400E00024C1
:102DC00004FA0EF42C430CF1020C5C4D45F82C4037
:102DD0005B4CA568D44325EA02064F6817F4801FB0
:102DE00001D042EA0506564DAE60ED6804EA0506DC
:102DF0004F6817F4001F01D042EA0506504DEE60FF
:102E00006D6804EA05064F6817F4003F01D042EAF6
:102E100005064B4D6E602D682C404E6816F4803FC1
:102E200001D042EA0504464A146001330A6832FAC6
:102E300003F400F081804FF0010C0CFA03FC1CEA53
:102E40000202F2D04C6804F00304013C012C81D949
:102E50004C6804F0030EBEF1030F8FD04C6804F0F1
:102E60000304032C0CD0C4685D004FF0030C0CFA73
:102E700005FC24EA0C0C8C68AC4044EA0C04C460E9
:102E80004C6804F00304022C81D004684FEA430E1E
:102E90004FF0030C0CFA0EFC24EA0C0C4C6804F006
:102EA000030404FA0EF444EA0C0404604C6814F4BD
:102EB000403FBAD0234C256E45F001052566246EAF
:102EC00004F001040194019C4FEA930C0CF10205FB
:102ED0001A4C54F8255003F0030E4FEA8E0E0F24BF
:102EE00004FA0EF425EA0405B0F1904F3FF467AF01
:102EF000154CA04216D004F58064A04214D004F50D
:102F00008064A04212D004F58064A04210D004F581
:102F10008064A0420ED004F58064A0423FF44DAF1F
:102F200007244DE701244BE7022449E7032447E740
:102F3000042445E7052443E703B0F0BD0000014049
:102F40000004014000100240000400480AB1816101
:102F500070478162704730B4446C04F01C0C01244B
:102F600004FA0CF4056C6C60046863608368102BD1
:102F700005D0036899600368DA6030BC7047036865
:102F80009A600368D960F8E7002873D010B403464C
:102F90000068394A90424AD8384A02443849A1FB6D
:102FA0000212120992005A64364A1A64022283F805
:102FB0002520016821F4FF4121F070019A68DC6846
:102FC00022431C6922435C6922439C692243DC69D9
:102FD00022431C6A22430A4302609A68B2F5804F7A
:102FE0001BD0196C274A91422CD0264AD2F8A8143B
:102FF000586C00F01C0C0F2000FA0CF021EA0001C4
:10300000C2F8A814D2F8A81458685C6C04F01C0C20
:1030100000FA0CF00143C2F8A8140020D863012282
:1030200083F8252083F824005DF8044B7047164A86
:1030300002441349A1FB0212120992005A64134A76
:103040001A64B3E7D2F8A810586C00F01C0C0F20DB
:1030500000FA0CF021EA0001C2F8A810D2F8A8107A
:1030600058685C6C04F01C0C00FA0CF00143C2F8C8
:10307000A810D2E70120704707040240F8FFFDBF07
:10308000CDCCCCCC00000240F8FBFDBF00040240D8
:1030900038B5044690F82400012832D0012084F885
:1030A000240094F82500C0B2012804D0002384F83D
:1030B0002430022038BD022084F825000020E0637F
:1030C0002568286820F0010028602046FFF743FFAC
:1030D000236B5BB12268136843F00E031360226810
:1030E000136843F0010313600020E3E722681368CC
:1030F00023F0040313602268136843F00A0313608B
:10310000EDE70220D6E738B5036C19680468256836
:10311000436C03F01C0304229A400A4215D015F0B8
:10312000040F12D0236813F0200F03D1236823F07B
:1031300004032360436C03F01C02016C04239340DE
:103140004B60036B03B1984738BD02229A400A4294
:103150001CD015F0020F19D0236813F0200F06D1F0
:10316000236823F00A032360012380F82530436C91
:1031700003F01C02016C022393404B60002380F893
:103180002430C36A002BDFD09847DDE7082202FA1B
:1031900003F30B42D8D015F0080FD5D0236823F0E5
:1031A0000E032360436C03F01C03016C012202FA3E
:1031B00003F34B60C26380F82520002380F824309D
:1031C000436B002BC0D09847BEE70000024B186845
:1031D00000F4C060704700BF00700040B0F5007F91
:1031E0000FD01F4B1B6803F4C063B3F5806F34D05E
:1031F0001B4A136823F4C06343F480631360002008
:103200007047174B1B6803F4C063B3F5007F20D0F1
:10321000134A136823F4C06343F400731360114B23
:103220001B68322202FB03F30F4AA2FB03239B0C11
:10323000013300E0013B0A4A526912F4806F01D069
:10324000002BF7D1064B5B6913F4806F03D100208C
:10325000704700207047032070470020704700BF70
:10326000007000400800002083DE1B43002807DBBD
:1032700000F01F02400901239340024A42F8203027
:10328000704700BF00E100E0002808DB0901C9B277
:1032900000F1604000F5614080F80013704700F0D5
:1032A0000F000901C9B2014B1954704714ED00E039
:1032B00000B500F00700C0F1070CBCF1040F28BFF7
:1032C0004FF0040C031D062B0FD9C31E4FF0FF3E19
:1032D0000EFA0CF021EA000199400EFA03FE22EAF0
:1032E0000E0241EA02005DF804FB0023EEE7000055
:1032F000074AD36823F4E0631B041B0C000200F4AC
:10330000E060034343F0BF6343F40033D36070478E
:1033100000ED00E010B50446054BD868C0F302206C
:10332000FFF7C6FF01462046FFF7AEFF10BD00BF06
:1033300000ED00E008B5FFF799FF08BD0138B0F1D6
:10334000807F0BD24FF0E0235861054AF02182F8CC
:1033500023100020986107221A61704701207047EE
:1033600000ED00E010B5044601688368026913436C
:1033700042691343C269134308688E4A02401A43E4
:103380000A602268536823F44053E1680B4353609A
:10339000A1692268884B9A4201D0236A1943936835
:1033A00023F430630B4393602368844A934210D024
:1033B000834A934221D0834A934237D0824A934230
:1033C0005CD0824A93426BD07B4A93427DD01022DC
:1033D0003AE002F55842D2F8882002F00302032AAC
:1033E00009D8DFE802F00204870601222CE004225B
:1033F0002AE0082228E0102226E002F5E632D2F880
:10340000882002F00C020C2A0ED8DFE802F0070D2B
:103410000D0D090D0D0D750D0D0D0B00002213E0A6
:10342000042211E008220FE010220DE002F5E43240
:10343000D2F8882002F03002202A5FD01AD8002A61
:103440005ED0102A5ED104225B498B4276D0E069BF
:10345000B0F5004F00F0A380082A00F20E81DFE8EB
:1034600012F0DD00F300DB000C01F6000C010C0192
:103470000C01F900302A47D10822E5E702F5E232D3
:10348000D2F8882002F0C002802A3FD004D8FAB3D4
:10349000402A3FD10422D7E7C02A3DD10822D3E7F2
:1034A00002F5E032D2F8882002F44072B2F5007FD3
:1034B00034D005D8A2B3B2F5807F33D10422C3E75C
:1034C000B2F5407F30D10822BEE702F5C832D2F80B
:1034D000882002F44062B2F5006F27D005D83AB3D5
:1034E000B2F5806F26D10422AEE7B2F5406F23D14A
:1034F0000822A9E70222A7E70222A5E70222A3E702
:103500000022A1E710229FE710229DE702229BE7FD
:10351000002299E7102297E7102295E7022293E70D
:10352000002291E710228FE710228DE702228BE71D
:10353000002289E7102287E7102285E7082A00F297
:103540008C80DFE802F0088A2A8A278A8A8A0500A6
:103550004FF4004003E0FEF741FC00287FD0626892
:1035600002EB420383427CD8B0EB023F7BD8010ED2
:1035700000025308C0184FF0000341F10001FDF7AD
:1035800095F9A0F54072124B9A426ED82368D86024
:10359000002055E0FDF7F0FFDFE70E48DFE7082ADF
:1035A00065D8DFE802F019330564366464641D00F1
:1035B000084815E0F369FFEF008000400038014043
:1035C0000044004000480040004C004000500040D3
:1035D000FFFC0F000024F400FEF700FC002848D098
:1035E0006268530803EB4003B3FBF2F3A3F110014D
:1035F0004FF6EF7291423ED89AB222F00F02C3F317
:10360000420313432268D360002019E0FEF7F8FB61
:10361000E4E7FDF7B1FFE1E71B4802E0FEF7DEFB60
:1036200068B3636800EB5300B0FBF3F0A0F1100245
:103630004FF6EF739A4224D8236880B2D8600020F6
:1036400000236366A36610BDFEF7DAFBE8E7FDF72B
:1036500093FFE5E74FF40040E3E70120F0E70020A7
:10366000EEE70120ECE70120EAE70120E8E701208E
:10367000E6E70020E4E70120E2E70120E0E70020A0
:10368000DEE70120DCE700BF0024F400436A13F00A
:10369000010F06D00268536823F40033816A0B439C
:1036A0005360436A13F0020F06D00268536823F494
:1036B0008033C16A0B435360436A13F0040F06D092
:1036C0000268536823F48023016B0B435360436A01
:1036D00013F0080F06D00268536823F40043416BCF
:1036E0000B435360436A13F0100F06D002689368CF
:1036F00023F48053816B0B439360436A13F0200FD4
:1037000006D00268936823F40053C16B0B439360A7
:10371000436A13F0400F0AD00268536823F4801301
:10372000016C0B435360036CB3F5801F0BD0436AED
:1037300013F0800F06D00268536823F40023816CD5
:103740000B43536070470268536823F4C003416C15
:103750000B435360EBE72DE9F84305460F46164649
:103760009946DDF820802B68DC6937EA04040CBF39
:1037700001240024B44253D1B8F1FF3FF3D0FDF748
:10378000ADFEA0EB090040452DD8B8F1000F2AD0BE
:103790002B681A6812F0040FE5D0DA6912F4006F92
:1037A000E1D04FF400621A622A6852E8003F23F425
:1037B000D07342E800310029F6D12A6802F10803EB
:1037C00053E8003F23F00103083242E800310029AA
:1037D000F3D12023AB67EB67C5F88030002385F871
:1037E000743003201DE02A6852E8003F23F4D073B0
:1037F00042E800310029F6D12A6802F1080353E8B3
:10380000003F23F00103083242E800310029F3D1E0
:103810002023AB67EB67002385F87430032000E0BA
:103820000020BDE8F8832DE9F04182B01E46836F89
:10383000202B56D104460D469046002955D0002A2B
:1038400055D090F87430012B53D0012380F8743098
:103850000023C0F8803021238367FDF73FFE074631
:10386000A4F85080A4F85280A368B3F5805F05D017
:103870004FF00008002384F8743014E0236913B17A
:103880004FF00008F6E7A8460025F3E738F8023BBA
:103890002268C3F308031385B4F8522092B2013AA8
:1038A00092B2A4F85220B4F852309BB273B1009691
:1038B0003B46002280212046FFF74DFFD8B9002D5E
:1038C000E4D015F8012B23681A85E5E700963B46FE
:1038D000002240212046FFF73EFF70B92023A36756
:1038E00000E0022002B0BDE8F0810120FAE70120EB
:1038F000F8E70220F6E70320F4E70320F2E730B50B
:1039000083B004460023C0F88030FDF7E7FD05468C
:103910002268126812F0080F0DD123681B6813F09B
:10392000040F16D12023A367E3670020206684F8E4
:10393000740003B030BD6FF07E4300930346002255
:103940004FF400112046FFF706FF0028E5D00320C2
:10395000EFE76FF07E4300932B4600224FF4800187
:103960002046FFF7F8FE0028DCD00320E1E768B32B
:1039700010B50446836F03B32423A367226813683A
:1039800023F0010313602046FFF7ECFC012813D05D
:10399000636ABBB92268536823F49043536022687A
:1039A000936823F02A0393602268136843F00103AD
:1039B00013602046FFF7A3FF10BD80F87430FDF7B9
:1039C000BFF9D9E72046FFF761FEE3E70120704722
:1039D000034AD2F8883043F47003C2F88830704745
:1039E00000ED00E030B4B0EC017A4C1E002500E0A0
:1039F000013C54B1F0EC017AB4EEE77AF1EE10FA42
:103A0000F6D50D1BB0EE677AF2E782ED007A1D6005
:103A100030BC704768B1102202802022028214223A
:103A20008281054A8260054A4260054A426100205F
:103A300070474FF0FF307047E00A0108088801081E
:103A4000A0D5000868B120220280402202823022E4
:103A50008281054A8260054A4260054A426100202F
:103A600070474FF0FF307047800A0108088701084F
:103A7000A0D4000870B1802202804FF480720282CC
:103A8000D0228281054A8260054A4260054A42612D
:103A9000002070474FF0FF30704700BFE00801087A
:103AA00008830108A0D0000880B14FF48072028022
:103AB0004FF4007202824FF4DC728281054A826008
:103AC000054A4260054A4261002070474FF0FF30CE
:103AD000704700BF70050108087B0108A0C80008F6
:103AE00080B14FF4007202804FF4806202824FF482
:103AF000E0728281054A8260054A4260054A42615D
:103B0000002070474FF0FF30704700BFF001010800
:103B1000086B0108A0B8000880B14FF480620280F1
:103B20004FF4006202824FF4E1628281054A8260B2
:103B3000054A4260054A4261002070474FF0FF305D
:103B4000704700BFE0F30008084B0108A098000888
:103B500080B14FF4006202804FF4805202824FF431
:103B60006E628281054A8260054A4260054A42616E
:103B7000002070474FF0FF30704700BF20D600088C
:103B8000080B0108A058000830B54FF0000E1DE0EA
:103B900032F81EC04FEA9C0C0EF1010332F81330CC
:103BA0009B0850F82C4050F8235040F82C5040F817
:103BB00023400CF1010C50F82C40013350F82350F5
:103BC00040F82C5040F823400EF1020E7145DFD82A
:103BD00030BD00002DE9F04F2DED0E8B8DB006911C
:103BE0001546059181460A93059BDA080B924FF022
:103BF000000E09950EEB02000EEB4203D61803EB04
:103C00004201571801EB420C02EB0C0B4FEACE0AB3
:103C100009EBCE0494ED007A4FEAC10809EBC1012B
:103C2000D1ED007A77EE276A37EE677AC500009506
:103C300009EBC000019090ED006AF80009EBC7079E
:103C40000297D7ED007A76EE275A36EE676ADF00E4
:103C500009EBC303D3ED007A4FEACC05039509EBDA
:103C6000CC0C9CED005A77EE854A77EEC57AF500CC
:103C7000049509EBC6060796D6ED003A4FEACB0548
:103C8000089509EBCB0B9BED004A33EE845A73EE9B
:103C9000C43A76EEE40A76EEA46A35EEC51A75EEFD
:103CA000855A36EEA55A84ED005A76EEE56AC1EDE6
:103CB000006A0AF1040ACA449AED005A08F104089D
:103CC000C844D8ED006A75EE265A35EE665A009D56
:103CD00004354D44D5ED006A04304844D0ED004A27
:103CE00036EEA43A76EEE46A04374F44D7ED004A44
:103CF00003990E1D4E4496ED004A34EE842A74EE6C
:103D0000C44A04990431494491ED004A089C0434A2
:103D10004C44D4ED002A74EE221A34EE624A75EE59
:103D2000C22A75EE825A33EE612A33EE213A75EEDD
:103D3000831ACAED001A75EEC35AC8ED005A70EE28
:103D4000825AC3ED005A30EEC23A8CED003A72EE60
:103D5000C15AC7ED005A71EE225AC6ED005A76EEEE
:103D6000635A9FEDF33A65EE835A36EE236A26EEE8
:103D7000036A76EEC43A63EE833A76EE846A66EEC0
:103D8000836A37EE654A37EE257A77EEC65A77EEC4
:103D9000867A35EE633A35EE236A34EEE65A74EEEF
:103DA000A66A77EE264A019BC3ED004A37EE667A93
:103DB0008BED007A34EE057A029F87ED007A34EEBF
:103DC000454A079E86ED004A36EE677A85ED007A11
:103DD00077EE867AC4ED007A73EE657AC0ED007AEC
:103DE00075EE835AC1ED005A059B9E44069B7345B0
:103DF0003FF600AF099D0B9A072A40F2BB814FF0B6
:103E000001080023CB46C14690460A9A134403EBAF
:103E1000430103EB830203EB020E02EB430CDF00D2
:103E200005EBC300D0ED008A1E0105EB031090EDF9
:103E3000008ACC0005EBC10191ED000A580105EBA9
:103E40004311D1ED000AD10005EBC20292ED001A38
:103E50004FEACE0205EBCE0EDEED001A4FEACC0E95
:103E600005EBCC0C9CED002A04372F44D7ED002A3B
:103E700004362E4496ED003A04342C44D4ED003A36
:103E80000430284490ED004A04312944D1ED004A21
:103E900004322A4492ED005A0EF1040EAE44DEEDD7
:103EA000005A0793CDF82090099509EB080009EB1B
:103EB000480308EB030403EB480208EB020602EB9D
:103EC000480108EB010A4FEAC90E0BEBC90595ED55
:103ED000007A4FEAC20C0BEBC202D2ED007A77EE09
:103EE000276A37EE67AAC70000970BEBC000019066
:103EF00090ED006AF0000BEBC6060296D6ED007A54
:103F000036EE277A36EE676ADF000BEBC303D3ED9C
:103F1000007ACE000BEBC101039191ED009A77EE90
:103F2000899A77EEC97AE1000BEBC404049494ED0E
:103F300000CA4FEACA040BEBCA0ADAED00AA3CEE4B
:103F40002A9A3CEE6ACA76EEE9CA76EEA96A77EE5C
:103F500049DA37EE097A36EE879A85ED009A36EE21
:103F6000C7EA0EF1040EDE449EED00BA0CF1040C1B
:103F7000DC44DCED006A3BEE267A3BEE66BA009D3F
:103F800004355D44D5ED006A0430584490ED009A44
:103F900076EE899A76EEC96A04375F44D7ED00AAB7
:103FA00004365E4496ED009A7AEE89EA7AEEC9AA62
:103FB00004315944D1ED00BA04345C4494ED009AC4
:103FC0003BEE89DA7BEEC9BA37EE6E9A37EE2E7A7F
:103FD00079EECDEA79EE8D9A3CEEAEDA7CEEEECA61
:103FE00077EE29EACEED00EA37EE697A79EE6D9A3E
:103FF0003DEE899A60EE8EDA64EE07EA20EE877A6B
:1040000024EE0EEA7DEEAEDAC2ED00DA37EE4E7A3D
:104010008CED007A28EE0D7A63EE29DA68EE299AA3
:1040200023EE0DDA37EE2D7A83ED007A79EECD9A14
:10403000C7ED009A21EEAC7A65EE099A21EE899AD5
:1040400065EE2CCA37EE297A039A82ED007A39EEB2
:104050006C9A86ED009A36EE4C9A9FED357A29EEF1
:10406000079A36EE0C6A26EE076A36EEEBCA2CEE9D
:1040700007CA76EEAB6A66EE876A7AEE499A3AEE3E
:10408000097A37EEC69A77EE867A7BEE4CBA3BEE2B
:104090000C6A3AEEE6AA7AEEA66A37EE26BA37EE50
:1040A000667A79EE8AAA79EECA9A76EE676A77EE30
:1040B000867A3BEEC9AA39EE2B9A28EE8B6A62EE1D
:1040C000A6BA68EEA66A22EE8BBA36EE2B6A019B80
:1040D00083ED006A76EECB6AC5ED006A62EE076A90
:1040E00025EEA7BA62EE277A25EE876A36EE8B7A3E
:1040F0008AED007A77EEC67AC4ED007A61EE2A7A0C
:1041000024EE8A6A21EE0A7A64EEAA6A77EE867A4B
:10411000029EC6ED007A37EE667A80ED007A60EE98
:10412000296A23EE896A60EE097A23EEA97A01E012
:10413000F304353F76EE866A049CC4ED006A77EEA0
:10414000C77AC1ED007A059B9944069B4B453FF623
:10415000ACAE079BDDF82090099D09F10109C84527
:104160003FF653AED9460A9BDB009BB20A930B9BEA
:10417000059339E50DB0BDEC0E8BBDE8F08F00BFA7
:104180002DE9F0412DED028B90B0064608463588AA
:1041900001EB850774684FEA550801EB880E07EBC1
:1041A000880CED083A460B46CFE093ED005A8DEDB2
:1041B0000C5A93ED016A8DED0D6A93ED023A8DED87
:1041C0000E3A93ED037A8DED0F7A92ED000A8DEDA4
:1041D000080AD2ED010ACDED090A92ED021A8DED21
:1041E0000A1AD2ED031ACDED0B1A9EED002A8DEDC1
:1041F000042ADEED012ACDED052A9EED024A8DED61
:10420000064ADEED034ACDED074ADCED005ACDED5E
:10421000005ADCED016ACDED016ADCED023ACDED2C
:10422000023ADCED037ACDED037A35EE008A83EDB8
:10423000008A36EE208A83ED018A33EE018A83ED0F
:10424000028A37EE218A83ED038A35EE405A8DEDDE
:10425000085A36EE606A8DED096A33EE413A8DED0B
:104260000A3A37EE617A8DED0B7A72EE251ACEEDB1
:10427000001A72EEA61ACEED011A74EE231ACEEDD4
:10428000021A74EEA71ACEED031A75EEC25ACDEDDE
:10429000005A76EEE26ACDED016A73EEC42ACDEDE6
:1042A000022A77EEE47ACDED037AD4ED004A94ED5C
:1042B000014A65EE243A26EE042A26EE246A25EE0B
:1042C000045A73EE823AC2ED003A36EE456A82ED48
:1042D000016A25EE846A26EEA45A66EE846A65EECB
:1042E000A45A36EE456A8CED006A76EEA56ACCEDEE
:1042F000016A94ED026AD4ED035A23EE065A67EE82
:10430000254A27EE067A63EE256A35EE245A82EDB9
:10431000025A37EE667A82ED037A62EEA56A27EEDC
:10432000865A67EEA57A22EE867A76EEC56ACCEDDD
:10433000026A77EE877ACCED037A013D10341032B1
:104340000CF1100C0EF1100E1033002D7FF42DAF78
:104350001FFA88F8022372684146FFF73BFC0223EC
:10436000726841463846FFF735FC10B0BDEC028B51
:10437000BDE8F0812DE9F04F2DED048B95B0049050
:104380000A46059103885B0801EB830601EBC30134
:104390000C46029101EB8305311F0191A5F1040C3C
:1043A0000CEB8301D0F804E05B081F46039392ED09
:1043B000007AA4F10408D4ED007A37EE272A37EE0C
:1043C000677AD2ED017A2046D4ED016A77EEA62A0B
:1043D00077EEE67A96ED013A73EE073AD5ED016A8B
:1043E00073EEE63ACDED103AD6ED005A37EEE54AD7
:1043F00095ED006A34EE064A8DED114A72EE654A7B
:1044000074EEC64ACDED0C4A32EEC35A35EE665A0A
:104410008DED0D5A37EE437A76EE876ACDED086A58
:1044200075EEA77A77EEC67ACDED097A75EE825AE7
:1044300036EE256A02F1080982ED006A96ED017AEE
:1044400037EE227A95ED016A37EE067A82ED017A2F
:1044500032460832C6ED003A86ED014A0830C4ED16
:10446000004A84ED015A2B460833C5ED006AC5EDBC
:10447000017A0EF1080A0EF110040EF1180EA7F1E0
:10448000020B4FEA5B0B019F0696079523E199ED1E
:10449000007AD0ED007A77EE273A37EE677AD9EDD9
:1044A000017AD0ED016A37EEA64A77EEE67AD2EDD0
:1044B000014A34EE872A93ED013A32EE432A8DED1C
:1044C000102A92ED006A77EEC65AD3ED006A75EEB7
:1044D000A65ACDED115A73EEC62A72EEE62ACDED3C
:1044E0000C2A34EE645A35EE435A8DED0D5A37EEF0
:1044F000647A33EE073A8DED083A76EE277A77EE56
:10450000E67ACDED097A36EE236A76EE866A4D4676
:104510000835C9ED006A019592ED017A37EE047A0B
:10452000D3ED016A37EE267A89ED017A17ED010A9B
:104530001CED017A70EE078A30EE470AD7ED000ACB
:104540009CED007A30EE879A70EEC70A98ED001A5B
:10455000D1ED001A71EE616A36EE804A8DED124A95
:1045600018ED018A70EEC83A11ED017A73EE873AC0
:10457000CDED133A78EEC84A74EEC74ACDED0E4A37
:1045800039EE416A36EE616A8DED0F6A76EEC06AE9
:10459000CDED0A6A37EE487A37EE607A8DED0B7A08
:1045A00031EE091A71EE811AA7F10805C7ED001A5C
:1045B00058ED011A71EEA81A11ED011A71EE811A67
:1045C00047ED011A0AF10809DAED001A9AED011A0D
:1045D00062EE210A25EE810A65EEA15A22EE012A39
:1045E00070EE800A02F1080AC2ED000A75EEC25AA6
:1045F000C2ED015A63EE815A24EE212A24EE014ACB
:1046000063EEA13A75EEC25AA8F10806C8ED005A49
:1046100034EE234A08ED014A94ED004AD4ED015AE4
:10462000103462EE843A25EE252A25EE045A62EE15
:10463000A52A73EE823A02460832C0ED003A35EE02
:10464000625A80ED015A26EE445A64EEA53A64EEB1
:10465000844A26EE256A75EE635AACF10807CCED64
:10466000005A36EE646A0CED016A9EED006ADEEDDA
:10467000015A0EF1180E23EE065A67EEA54A67EEB0
:10468000867A23EE253A35EE245A1846083083ED13
:10469000005A77EEC37AC3ED017A67EE257A26EEEB
:1046A000865A66EEA56A27EE067A77EEC57AA1F1FC
:1046B000080CC1ED007A76EE876A41ED016A0BF1D4
:1046C000FF3B034610465246CA466146BC46B046CA
:1046D0002F46DDF80490BBF1000F7FF4D8AE069EA4
:1046E000079DD9ED004AD0ED007A34EEA72A74EE8A
:1046F000E74AD9ED017A90ED017A77EE872A77EED5
:10470000C77A92ED013A73EE245A93ED015A75EE91
:10471000C55ACDED105AD2ED003A77EEE36A93ED2B
:10472000004A76EE846ACDED116A32EE636A36EEA7
:10473000446A8DED0C6A32EEC37A37EE457A8DED20
:104740000D7A74EEC34A35EE245A8DED085A73EE95
:10475000A77A77EEC47ACDED097A73EE823A34EE19
:10476000234A89ED004AD2ED014A74EEA24A93ED44
:10477000014A74EE844AC9ED014ADAED003A9AED35
:10478000014A65EEA34A26EE843A66EEA36A65EE18
:10479000845A74EE834AC2ED004A76EEE56AC2EDB1
:1047A000016AD4ED004AD4ED015A66EE246A27EE80
:1047B000254A27EE247A26EE256A76EE846AC0ED35
:1047C000006A37EE467A80ED017A9EED006ADEEDF2
:1047D000016A25EE067A67EEA65A67EE867A25EE1E
:1047E000265A37EE257A83ED007A77EEC57AC3ED47
:1047F000017ABDF80C400423049F7A68214605988D
:10480000FFF7E8F904237A6821463046FFF7E2F91A
:1048100004237A6821460298FFF7DCF904237A68BA
:1048200021462846FFF7D6F915B0BDEC048BBDE84C
:10483000F08F2DE9F04106460C461746984605884C
:10484000012A0FD0B5F5807F21D025D8402D2AD060
:1048500019D9802D34D0B8F1000F36D1012F3AD0BC
:10486000BDE8F08101F1040C002109E0DCED007AE3
:10487000F1EE677A63460CF1080CC3ED007A013162
:10488000A942F3D3DEE7102D1AD0202DE3D1214623
:104890003046FFF76FFDDEE7B5F5006FF7D009D9B9
:1048A000B5F5805FD7D10123726829462046FFF70E
:1048B00091F9D0E7B5F5007FF5D0B5F5806FCAD195
:1048C00021463046FFF75CFCC5E7B268B189204657
:1048D000FFF75AF9C2E707EE905AF8EE677AF7EE5B
:1048E000006A86EEA77A00230DE0D4ED007A67EE29
:1048F000877AC4ED007AD4ED017A67EEC77AC4ED09
:10490000017A08340133AB42EFD3A9E700B543691C
:10491000B0F800C00CF1FF3CD1ED007A91ED017AC6
:1049200003F1080077EEA77A37EE077A77EE876A09
:10493000B6EE006A66EE866A13460833C2ED006A78
:1049400077EEC77A67EE867AC2ED017A01EBCC0E7C
:1049500008319EED015A7246AEF1080E92ED007AD2
:10496000D1ED004AD1ED017AD0ED006AD0ED015AC7
:10497000083037EE646A35EE274A66EE863A25EE51
:10498000866A66EE846A65EE845A37EE247A37EEDC
:10499000237A37EE257AF6EE005A27EE257A83ED54
:1049A000007A77EEC57A77EE867A77EEE67A1A465F
:1049B000083367EEA57AC2ED017A0831BCF1010C2B
:1049C000C7D15DF804FB10B5436900880138D1ED0B
:1049D000007A91ED016A03F1080E37EE867AF6EE61
:1049E000006A27EE267A02F1080C82ED007A77EE53
:1049F000C67A67EEA67AC2ED017A01EBC0040831EF
:104A000037E094ED015A2346083C93ED007AD1ED4E
:104A1000005AD1ED017A72460832DEED006A9EED51
:104A2000016A35EEC74A75EE274A26EE843A66EEED
:104A3000243A26EE046A66EEA46A37EE257A37EE4B
:104A4000437A37EE637AF6EE005A27EE257A63460C
:104A500008338CED007A77EEC57A77EE867A77EEBA
:104A6000E67A67EEA57ACCED017A083101389646F0
:104A70009C460028C5D110BDF8B504460D46164623
:104A8000028A520802801F464BB13246FFF79BFF55
:104A900001233A4631462046FFF7CBFEF8BD0123FD
:104AA0003A46FFF7C6FE324629462046FFF72EFF5C
:104AB000F4E7000008B5B1F5007F1CD00DD84029FF
:104AC0001BD0B1F5807F01D10F4B12E0202901D11D
:104AD0000E4B0EE04FF0FF300CE0B1F5006F0ED042
:104AE000B1F5805F01D10A4B03E0B1F5806F08D1C9
:104AF000084B984708BD084BFBE7084BF9E7084B04
:104B0000F7E74FF0FF30F5E7753A0008153A00086F
:104B1000513B0008E13A0008A93A0008453A00086C
:104B2000193B0008F8B50E46154604E00023336033
:104B3000013D3E462046B5B10446083490ED000ADA
:104B4000D0ED017A20EE000A67EEA77A30EE270A50
:104B5000371DB5EEC00AF1EE10FAE7DB00F0D4FC29
:104B600086ED000AE4E7F8BDDFF834D0FEF730FF49
:104B70000C480D490D4A002302E0D458C4500433B8
:104B8000C4188C42F9D30A4A0A4C002301E013608E
:104B90000432A242FBD300F039F8FCF787F8FEE7B5
:104BA000008001200000002060000020D88801085B
:104BB0006000002038430020FEE700000EB400B57E
:104BC0009CB01DAB029006906FF000410948079120
:104BD0000491094953F8042B05910068019302A937
:104BE00000F08EF9029B00221A701CB05DF804EBF5
:104BF00003B070470C0000200802FFFF0244034688
:104C0000934200D1704703F8011BF9E770B50D4DD1
:104C10000D4C641BA4100026A64209D10B4D0C4C70
:104C200000F00AFE641BA4100026A64205D170BD48
:104C300055F8043B98470136EEE755F8043B984792
:104C40000136F2E7C8880108C8880108C888010849
:104C5000CC8801087047704738B50546002941D017
:104C600051F8043C0C1F002BB8BFE41800F0E0F82A
:104C70001D4A136833B9636014602846BDE83840A4
:104C800000F0DCB8A34208D9206821188B4201BF8C
:104C900019685B6809182160EDE71A465B680BB17B
:104CA000A342FAD911685018A0420BD120680144E0
:104CB000501883421160E0D118685B685360084463
:104CC0001060DAE702D90C232B60D6E720682118A0
:104CD0008B4204BF19685B68636004BF09182160D8
:104CE0005460CAE738BD00BF3043002070B50F4E96
:104CF0000C463168054611B900F0B2FB3060214620
:104D0000284600F0ADFB431C03D14FF0FF34204692
:104D100070BDC41C24F00304A042F8D0211A284618
:104D200000F09EFB0130F2D1EFE700BF2C430020E2
:104D30002DE9F843CD1C25F0030508350C2D38BFAF
:104D40000C25002D064601DBA94204D90C23336053
:104D50000020BDE8F883DFF8D48000F069F8D8F8C7
:104D600000301C4644BB29463046FFF7BFFF431CBA
:104D7000044658D1D8F800402746002F43D1002CD4
:104D80004BD023683946304604EB030900F068FB3A
:104D9000814542D121686D1A29463046FFF7A6FFAA
:104DA00001303AD023682B442360D8F800305A6889
:104DB00062BBC8F800700FE02268521B20D40B2A97
:104DC00017D96119A342256018BF5960636808BFED
:104DD000C8F8001062514B60304600F02FF804F123
:104DE0000B00231D20F00700C21A1CBF1B1AA35082
:104DF000AFE76268A3420CBFC8F800205A60EBE737
:104E000023466468AEE73C467F68B6E71A465B68AF
:104E1000A342FBD100235360DEE70C23336030460E
:104E200000F00CF894E70560D6E700BF304300209F
:104E30000148FFF70FBF00BF284300200148FFF7DC
:104E40000ABF00BF284300202DE9F0478E681F46A7
:104E5000BE420B6882460C4690462DD8B1F90C2014
:104E600012F4906F26D06569096905EB4505A3EB3F
:104E7000010905EBD5757B1C4B446D109D4238BF75
:104E80001D46530527D52946FFF752FF064660B356
:104E900021694A4600F0F4FAA38923F4906343F0B1
:104EA0008003A381266165614E44A5EB0905266058
:104EB000A5603E46BE4200D93E4620683246414685
:104EC00000F0B4FAA3689B1BA360236833442360FB
:104ED0000020BDE8F0872A4600F0E0FA06460028E8
:104EE000E0D121695046FFF7B7FE0C23CAF8003025
:104EF000A38943F04003A3814FF0FF30E9E70000AE
:104F00002DE9F04F98468B891B069DB007460D464C
:104F1000144610D50B6973B94021FFF709FF2860CB
:104F2000286130B90C233B604FF0FF301DB0BDE865
:104F3000F08F40236B610023099320238DF82930E3
:104F4000CDF80C803023DFF89C818DF82A304FF0AB
:104F5000010923469A4613F8012B0AB1252AF9D1F3
:104F6000BAEB040B0BD05B46224629463846FFF7C6
:104F70006BFF013000F0A780099A5A4409929AF811
:104F80000030002B00F09F8000234FF0FF32CDE96E
:104F900005230AF1010A049307938DF853301A93FD
:104FA0005446052214F8011B4E48FBF7F9F8049A01
:104FB000D8B9D00644BF20238DF85330110744BF21
:104FC0002B238DF853309AF800302A2B15D0079AEE
:104FD000544600204FF00A0C214611F8013B303BAB
:104FE000092B4BD9B0B1079214E0A0EB080309FAE2
:104FF00003F313430493A246D2E7039B191D1B68D6
:105000000391002BBBBF5B4242F002020793079360
:10501000B8BF049223782E2B0AD163782A2B32D181
:10502000039B1A1D1B68039243EAE3730234059342
:10503000DFF8C0A0217803225046FBF7B1F838B161
:10504000049BA0EB0A0040228240134301340493E6
:1050500014F8011B24488DF828100622FBF7A0F84D
:10506000002836D0214B1BBB039B073323F00703DB
:1050700008330393099B334409936AE70CFB02321C
:105080000C460120A8E700230134059319464FF090
:105090000A0C204610F8012B303A092A03D9002BBC
:1050A000C6D00591C4E70CFB012104460123F0E7BB
:1050B00003AB00932A460E4B04A93846AFF3008099
:1050C000421C0646D6D1AB895B063FF52DAF099849
:1050D0002CE703AB00932A46054B04A9384600F0A1
:1050E00079F8EDE78888010892880108000000003F
:1050F000494E00088E8801082DE9F047164698466B
:105100008A680B69DDF820909342B8BF134633607C
:1051100091F8432007460C460AB1013333602368F7
:10512000990642BF336802333360256815F00605DF
:1051300006D104F1190AE36832689B1AAB4226DCF7
:1051400094F843302268003B18BF012392062BD409
:1051500004F1430241463846C84701301ED0236857
:10516000226903F00603042B02BFE5683368ED1AD9
:10517000A3680CBF25EAE57500259342C4BF9B1ABE
:10518000ED1800261A34B5421AD1002008E0012398
:10519000524641463846C847013003D14FF0FF30F0
:1051A000BDE8F0870135C6E7E1185A1C302081F8C8
:1051B0004300224494F8451082F843100233C7E7B5
:1051C0000123224641463846C8470130E6D0013621
:1051D000D9E700002DE9FF470F7E0C9E782F9146FE
:1051E00080460C469A4601F1430207D8622F0AD83E
:1051F000002F00F0DD80582F00F0C38004F142063C
:1052000084F842703AE0A7F16303152BF6D801A1A8
:1052100051F823F06D52000881520008FD5100083A
:10522000FD510008FD510008FD51000881520008A1
:10523000FD510008FD510008FD510008FD51000816
:10524000975300080F5300084F530008FD51000802
:10525000FD510008B9530008FD5100080F53000824
:10526000FD510008FD5100085753000833681A1D0E
:105270001B68326004F1420684F842300123A8E042
:1052800031682368081D30601E0601D50D6803E0F3
:105290005D06FBD5B1F900506168002D78DA2D204C
:1052A000002984F84300A1602DDA5E486D420A238C
:1052B0001646B5FBF3F103FB1157C75D06F8017DF8
:1052C0002F46BB420D46F4D9082B0BD12368DF07CC
:1052D00008D5236961689942DEBF302306F8013C96
:1052E00006F1FF36921B2261CDF800A04B4603AABF
:1052F00021464046FFF700FF01306FD14FF0FF30ED
:1053000004B0BDE8F08723F004032360CDE72168F3
:105310003368080653F8045B02D4490648BFADB2AF
:105320006F2F4048336014BF0A230823002184F8FC
:1053300043106668A660002EBADB216821F00401E4
:105340002160002DB4D1002EB2D11646BCE72368EF
:1053500043F0200323603448782784F8457023689D
:1053600031681F0651F8045B02D45F0648BFADB236
:105370003160D90744BF43F0200323601DB11023DF
:10538000D4E72848E9E7236823F020032360F6E701
:1053900024480A23CDE7336825686169181D306009
:1053A0002E061B6801D5196002E06806FBD519803E
:1053B00000232361164697E733681A1D32601E6882
:1053C000626800213046FAF7EBFE08B1801B60608E
:1053D00063682361002384F8433085E723693246FC
:1053E00049464046D047013088D023689B0714D4F3
:1053F000E068039B9842B8BF184681E70123324614
:1054000049464046D04701303FF478AF0135E36864
:1054100003995B1AAB42F1DCEAE7002504F11906B7
:10542000F5E700BF99880108AA880108884210B5ED
:1054300001EB020402D98442234607D8431EA1424D
:1054400008D011F8012B03F8012FF8E702440146B8
:105450008A4200D110BD13F8014D02F8014DF7E763
:1054600038B5064D0023044608462B6000F072F85C
:10547000431C02D12B6803B1236038BD24430020B4
:105480000A44914200F1FF3300D1704710B511F882
:10549000014B03F8014F9142F9D110BD2DE9F041C4
:1054A000804615460C4621B9BDE8F0411146FFF78C
:1054B0003FBC2AB9FFF7D0FB00242046BDE8F081AD
:1054C00000F01AF88542064602D8B5EB500FF4D822
:1054D00029464046FFF72CFC07460028ECD0B54291
:1054E0002A46214628BF3246FFF7CAFF21464046DA
:1054F000FFF7B2FB3C46E0E751F8043C181F002BD5
:10550000BCBF0B58C018704708B52DED028BB0EE2C
:10551000408A00F01BF8B4EE488AF1EE10FA06D685
:10552000DFED098AB4EEE88AF1EE10FA02D4BDECA0
:10553000028B08BD00F07AF988EEA80ABDEC028B58
:105540002123036008BD00BF00000000B1EEC00AC7
:10555000704700BF044A05491368002B08BF0B467B
:105560001844106018467047344300203843002028
:105570002DE9F047089D0C46002B4ED194468C45F2
:105580008646B2FA82F262D94AB1C2F12003914052
:1055900020FA03F30CFA02FC194300FA02FE4FEA68
:1055A0001C471FFA8CF6B1FBF7F44FEA1E4307FBCA
:1055B000141143EA014304FB06F199420AD91CEB9A
:1055C000030304F1FF3080F01281994240F20F8111
:1055D000023C6344591A1FFA8EF3B1FBF7F007FB44
:1055E000101143EA014300FB06F69E420AD91CEB68
:1055F000030300F1FF3180F0FC809E4240F2F9800D
:10560000634402389B1B40EA044000211DB1D34093
:105610000022C5E90032BDE8F0878B4205D90DB103
:10562000C5E9000100210846F5E7B3FA83F1002936
:1056300046D1A34202D39042C0F0F080861A64EBB8
:1056400003030120002DE6D0C5E90063E3E7002A4B
:1056500040F09080A1EB0C044FEA1C481FFA8CF735
:105660000121B4FBF8F64FEA1E4308FB164443EA57
:10567000044307FB06F0984208D91CEB030306F12C
:10568000FF3402D2984200F2CD8026461C1A1FFA3F
:105690008EF3B4FBF8F008FB104443EA044300FB2C
:1056A00007F79F4208D91CEB030300F1FF3402D235
:1056B0009F4200F2B0802046DB1B40EA0640A5E78F
:1056C000C1F120068B4022FA06F71F4320FA06FCA0
:1056D00004FA01F343EA0C03F44000FA01F8380C31
:1056E0004FEA1349B4FBF0FE1FFA87FC00FB1E448F
:1056F00049EA04440EFB0CF9A14502FA01F20AD969
:105700003C190EF1FF3A80F08480A14540F281807F
:10571000AEF1020E3C44A4EB09041FFA83F9B4FB7A
:10572000F0F300FB134449EA044403FB0CFCA445DA
:1057300007D93C1903F1FF3067D2A44565D9023B74
:105740003C4443EA0E40A0FB0293A4EB0C049C42B1
:10575000CE469C4651D34ED055B1B8EB0E0364EB08
:105760000C0404FA06F6CB401E43CC40C5E90064A5
:10577000002150E7C2F1200320FA03F10CFA02FCE9
:1057800024FA03F394400C434FEA1C4800FA02FE4B
:105790001FFA8CF7B3FBF8F008FB1031230C43EA37
:1057A000014300FB07F1994208D91CEB030300F108
:1057B000FF362CD299422AD9023863445B1AA4B22C
:1057C000B3FBF8F108FB113344EA034401FB07F390
:1057D000A34208D91CEB040401F1FF3613D2A34203
:1057E00011D902396444E41A41EA004139E7044618
:1057F000F0E6084606E7C845AED2B9EB020E63EB09
:10580000070C0138A8E73146EDE7034699E7304633
:10581000D4E7D6467FE7634402384DE70646234681
:1058200008460FE7023E634430E700BF014B1868AB
:10583000704700BF0C000020F8B500BFF8BC08BCE2
:105840009E467047F8B500BFF8BC08BC9E4670473E
:10585000257520487A0D0A00A0860100400D03003E
:10586000801A060000350C0040420F0080841E00A4
:1058700000093D0000127A000024F40000366E0199
:105880000048E801006CDC02000000000102030493
:1058900000000000000000000102030406070809E0
:1058A000000000000000803FD40FC93AECFF7F3FAA
:1058B000C70F493BB1FF7F3FC1CB963B4EFF7F3FB8
:1058C000890FC93BC4FE7F3F3053FB3B13FE7F3F34
:1058D00059CB163C39FD7F3F02ED2F3C39FC7F3F11
:1058E000900E493C11FB7F3F0030623CC1F97F3F85
:1058F0004B517B3C4AF87F3F38398A3CACF67F3FBE
:10590000B6C9963CE6F47F3F1C5AA33CF8F27F3FB1
:1059100069EAAF3CE3F07F3F9B7ABC3CA7EE7F3F58
:10592000B00AC93C43EC7F3FA69AD53CB8E97F3F1B
:105930007B2AE23C05E77F3F2DBAEE3C2BE47F3F1C
:10594000B949FB3C29E17F3F90EC033D00DE7F3FFE
:105950002F340A3DAFDA7F3FB87B103D37D77F3F0A
:105960002CC3163D98D37F3F880A1D3DD1CF7F3F82
:10597000CC51233DE2CB7F3FF698293DCCC77F3FFA
:1059800007E02F3D8FC37F3FFC26363D2ABF7F3F78
:10599000D56D3C3D9EBA7F3F91B4423DEAB57F3F15
:1059A0002FFB483D0FB17F3FAF414F3D0DAC7F3FD7
:1059B0000E88553DE3A67F3F4CCE5B3D91A17F3FD6
:1059C0006814623D189C7F3F625A683D78967F3F1D
:1059D00038A06E3DB1907F3FE9E5743DC28A7F3FBC
:1059E000742B7B3DAB847F3F6CB8803D6D7E7F3FE9
:1059F0000ADB833D08787F3F94FD863D7B717F3FC6
:105A00000A208A3DC76A7F3F6A428D3DEC637F3F33
:105A1000B464903DE95C7F3FE786933DBF557F3F8F
:105A200005A9963D6D4E7F3F0ACB993DF4467F3FD9
:105A3000F9EC9C3D543F7F3FCF0EA03D8D377F3F1B
:105A40008C30A33D9D2F7F3F3052A63D87277F3F5F
:105A5000BA73A93D491F7F3F2B95AC3DE4167F3FAC
:105A600080B6AF3D580E7F3FBBD7B23DA4057F3F08
:105A7000DAF8B53DC9FC7E3FDD19B93DC7F37E3F7D
:105A8000C33ABC3D9DEA7E3F8D5BBF3D4CE17E3F0E
:105A9000397CC23DD4D77E3FC69CC53D34CE7E3FC7
:105AA00036BDC83D6DC47E3F86DDCB3D7FBA7E3FAF
:105AB000B7FDCE3D69B07E3FC81DD23D2DA67E3FCD
:105AC000B93DD53DC99B7E3F895DD83D3D917E3F27
:105AD000377DDB3D8B867E3FC49CDE3DB17B7E3FC8
